:020000040000fa
:080000000001040000000000f3
:020000040000fa
:100008009401000094010000940100009401000094
:100018009401000094010000940100009401000084
:10002800940100009401000094010000a006000063
:100038009401000094010000940100009401000064
:10004800940100009401000094010000de06000005
:100058009401000094010000940100009401000044
:100068009401000094010000940100009401000034
:100078009401000094010000940100009401000024
:100088009401000094010000940100009401000014
:100098009401000094010000940100009401000004
:1000a80094010000940100009401000094010000f4
:1000b80094010000940100009401000094010000e4
:1000c80094010000940100009401000094010000d4
:1000d80094010000940100009401000094010000c4
:1000e80094010000940100009401000094010000b4
:0800f8009401000094010000d6
:020000040000fa
:100108009401000094010000940100009401000093
:100118009401000094010000940100009401000083
:10012800940100009401000094010000a006000062
:100138009401000094010000940100009401000063
:10014800940100009401000094010000de06000004
:100158009401000094010000940100009401000043
:100168009401000094010000940100009401000033
:100178009401000094010000940100009401000023
:100188009401000094010000940100009401000013
:100198009401000094010000940100009401000003
:1001a80094010000940100009401000094010000f3
:1001b80094010000940100009401000094010000e3
:1001c80094010000940100009401000094010000d3
:1001d80094010000940100009401000094010000c3
:1001e80094010000940100009401000094010000b3
:0801f8009401000094010000d5
:020000040000fa
:100200002f8520000e7f22000e01880000000000d4
:1002100000012000200288000c0007002087200039
:100220000100200011000700000020000000e00095
:10023000020032000000020000000000b0040200d2
:10024000000000000040da000000fe004440a90069
:10025000000020000000e000030032000000200049
:10026000a00188004440a800000006009101880019
:10027000800078000000eb0015003700e2804000ad
:1002800032a0b4009101ba00e280400032a0b40074
:100290009102ba00e280400032a0b4000002eb00fc
:1002a000472bde00f507b200602ce10004003a00a5
:1002b0000059eb008301e900fdff3e000400370018
:1002c0006128e100010032000082eb000400070019
:1002d0001101ba000200e000e8ff3a000000060049
:1002e0003159ba008301e9000c0032002159ba00eb
:1002f0008301e900080032000400e00003003a0036
:10030000e280400032a0b400f5ff370011d9ba00f6
:100310008301e900faff3a008100e800e180400033
:1003200032a0b400000006000040da000000fe0029
:100330006022b800060220000000d0008180d200b8
:100340000482d2008582d2000000a0000202520086
:1003500083825a00030031000202420083824a0075
:100360000000a1000603e900f3ff3a0000000600c8
:020000040000fa
:100370001400fa004047980031079800420798009f
:10038000530798006407980075079800060f9800b7
:10039000170f98003e029000f401b3003407980054
:1003a0000e0b90009e0b9000463add00ca32de0034
:1003b000850272004632dd006e019000fe01900061
:1003c0000400be00daff07000002be00048fbe007a
:1003d00004202000050020001e03be00840f5300ef
:1003e000858f5b0003003e001400200064428800fb
:1003f0003200370034802000050020001e03be00bc
:10040000840f5300858f5b000d003e0044002000e8
:10041000644288001e02be004e2bdd004222de0038
:1004200004027300c22ade00048fbe00be029000e8
:10043000e4ff2f0004826200340798001f00370099
:10044000f4002200050020001e03be00840f5300ac
:10045000858f5b000d003e0004012000644288008f
:100460001e02be004c2bdd004422de00040273009d
:10047000c42ade00048fbe00be029000d4ff2f000d
:1004800004826200340798000c0037000404200046
:10049000644288001e02be004a2bdd004622de00b8
:1004a00004027300c62ade00048fbe00be02900064
:1004b000c4ff2f000482620034079800041c20004f
:1004c000050020001e03be00840f5300858f5b00d3
:1004d00008003600644280004322dd006442880048
:1004e000be02900034fe2f000482620034079800a0
:1004f0005700370004182000050020001e03be002e
:10050000840f5300858f5b00090036006442800031
:100510006722b9000402780064428800be0290009d
:1005200074fe2f00048262003407980048003700f0
:1005300004142000050020001e03be00840f530099
:10054000858f5b0009003600644280006622b90096
:100550000402780064428800be029000b4fe2f00be
:10056000048262003407980039003700041020002c
:10057000050020001e03be00840f5300858f5b0022
:1005800009003600644280006522b9000402780048
:1005900064428800be029000f4fe2f0004826200d4
:1005a000340798002a003700040c200005002000c2
:1005b0001e03be00840f5300858f5b0008003600c9
:1005c000644280004222dd0064428800be02900046
:1005d00034ff2f0004826200340798001c003700ab
:1005e00004082000050020001e03be00840f5300f5
:1005f000858f5b0009003600644280006322b900e9
:100600000402780064428800be02900074ff2f004c
:1006100004826200340798000d00370004042000b3
:10062000050020001e03be00840f5300858f5b0071
:1006300007003600644280000402420064428800e1
:10064000be029000b4ff2f000482620034079800bd
:10065000644280004222dd00644288004e429000e5
:10066000e14f520004003a003e029000141188004d
:100670005e039000061188004e429000e24f520047
:1006800004003a003e029000441188005e0390008e
:10069000361188000080fa00000006000c00fa0005
:1006a00040079800214f98000042eb00044f78006b
:1006b0002e4a9000e14f520054003a008500a900f4
:1006c0004e029000241188000002eb0034079800cd
:1006d000180037003e0290000402e800340798003a
:1006e00064428000be029000848f520003003600f6
:1006f00034c0b300044f78000e00370005118000ad
:100700000404200004826200e00f52000300320063
:1007100044c0b300044f7800060037000411800085
:1007200062026200e00f520002003a0014c0b300ff
:10073000044f78001e427800e04f5200e5ff32007f
:10074000200037003e0290000402e80034079800c1
:1007500064428000be029000848f52000300360085
:1007600034c0b300044f7800160037000511800034
:100770000404200004826200e00f520003003200f3
:1007800044c0b300044f78000e00370025048000f9
:100790000410200004826200e00f520003003200c7
:1007a00024c0b300044f7800060037000411800015
:1007b00061026200e00f52000200320024c0b30068
:1007c000044f78001e427800e14f5200ddff3200f6
:1007d0001e427800e24f520005003a0024118000ca
:1007e000050020001407980025079800070037002f
:1007f0000400200015112100140798002507980017
:10080000444280000402e800444288002e4a9000de
:10081000e24f52004d003a008740a9004e0290007e
:10082000541188000002eb003407980018003700cc
:100830003e0290000402e800340798006442800001
:10084000be029000848f52000300360034c0b30013
:10085000044f78000e00370035118000040420009a
:1008600004826200e00f52000300320044c0b30073
:10087000044f7800060037003411800062026200e5
:10088000e00f520002003a0014c0b300044f780099
:100890001e427800e04f5200e5ff32001900370099
:1008a0003e0290000402e800340798006442800091
:1008b000be029000848f52000300360034c0b300a3
:1008c000044f78000f003700351180000404200029
:1008d00004826200e00f52000300320044c0b30003
:1008e000044f7800070037003504800004402000e2
:1008f00004826200e00f52000200320024c0b30004
:10090000044f78001e427800e14f5200e4ff3200ad
:100910001e427800e24f520005003a005411800058
:1009200005002000140798002507980007003700ed
:1009300004002000151121001407980025079800d5
:10094000544280000402e800544288001e029000d5
:10095000ae0290000400be000080fa000000060015
:100960000000fa008d60a9008560a900c404800021
:1009700004c0a10004d0a00004e0a000c4048800ca
:100980008c60a9008460a900a404800004c0a000b9
:1009900004d0a00004e0a000a40488000082eb00c2
:1009a000041688000082eb003416880014fe2b0029
:1009b0006416880004fe2f00941688000082eb0065
:1009c000f4168800d4ff20002417880034002f007c
:1009d00044158800c4ff200054158800242e2e00e2
:1009e00034158800f4cf27000415880044fe200049
:1009f0001415880064342e0024158800a1e2a80094
:100a00008560a9008d60a80024f4200014088800e7
:100a100004032800240888008460a9008c60a800d2
:100a20000400240065002000c4408800d5408800f0
:100a300004022000a5002000e4408800f540880062
:100a400024c0b3000440780020e8b700f45320002d
:100a5000144188000002eb002441880004002a00b1
:100a600034418800046a28001500200044418800b1
:100a700055418800046829008509200064418800e8
:100a80007541880080812000e800070004002800ec
:100a90006500200084418800954188000402200000
:100aa000a5002000a4418800b541880024c0b300ff
:100ab0000440780038e8b700f4532000d44188009f
:100ac0000002eb00e441880004002a00f4418800a1
:100ad000046a28001500200004428800154288009e
:100ae00004682900850920002442880035428800d6
:100af00000832000cd0007000060fe00b4408000ad
:100b0000e00f52000a0032000002eb00b4408800ff
:100b1000451780000400240004826200e00f5200a8
:100b200002003a00e9c2a80001003700e9c2a900aa
:100b3000451680000400210004826200e00f52008c
:100b400002003a00d022a90001003700d022a800fc
:100b5000451680000400220004826200e00f52006b
:100b600002003a00d042a90001003700d042a8009c
:100b7000451680000400240004826200e00f520049
:100b800002003a00d062a90001003700d062a8003c
:100b9000451680000400280004826200e00f520025
:100ba00002003a00d082a90001003700d082a800dc
:100bb000151680000400210004826200e00f52003c
:100bc00002003a00e822a90001003700e822a8004c
:100bd000151680000400240004826200e00f520019
:100be00002003a00d1c2a80001003700d1c2a9001a
:100bf000451680000400210004826200e00f5200cc
:100c000002003a00d602a80001003700d602a9006f
:100c1000451680000400220004826200e00f5200aa
:100c200002003a00d622a80001003700d622a9000f
:100c3000451680000400240004826200e00f520088
:100c400002003a00d642a80001003700d642a900af
:100c5000451680000400280004826200e00f520064
:100c600002003a00d662a80001003700d662a9004f
:100c7000151680000400210004826200e00f52007b
:100c800009003a0015168000040024000482620066
:100c9000e00f520004003a00e982a900140020008d
:100ca000a440880003003700e982a8000002eb009e
:100cb000a44088003417800061026200e00f5200f7
:100cc00002003200e9a2a90001003700e9a2a80051
:100cd0000417800068026200e00f52000200320038
:100ce000e9e2a90001003700e9e2a80064408000c1
:100cf00004017800010021008081200070000700bd
:100d000074408000040178000100290080812000e7
:100d10006b000700044080000401780001002100fe
:100d20000083200066000700744280000401780000
:100d30000100290000832000610007006eff3700da
:100d40003600f800809fbe00829fbe00849fbe00d8
:100d5000869fbe000000fa008460a900a4408000c5
:100d6000e00f520005003200d682a90040062000a4
:100d700001002000ef000700d682a8007442800026
:100d8000700242007442880075428000f4ff200027
:100d9000048262007442880014002000b44088007d
:100da0000080fa004f03be004f02be004f01be009c
:100db0004f00be003600f90000400600841f780096
:100dc0000000fa00a042a9008560a9000414800078
:100dd000044088001414800014408800241480000b
:100de000244088003414800034408800441480007b
:100df00044408800541480005440880064148000eb
:100e0000644088007414800074408800841480005a
:100e1000844088009414800094408800a042a80078
:100e20000080fa004f027800004006000200fa003d
:100e3000000f78001e027800b40290002402900097
:100e40000400be00610007001e0278001402be000c
:100e50000400be005d0007001e027800b40290008e
:100e6000240290000400be008c0007001e027800df
:100e70001402be000400be00880007001e027800b5
:100e8000240b9000b40b90001e027800940a90008e
:100e9000040a90001e007800f00190001e00780007
:100ea000600190001e007800d00090001e007800c5
:100eb000004890002efd07000080fa0000000600a8
:100ec0000c00fa003007980041079800520798007c
:100ed000de029000f4ff20000482620054079800b4
:100ee000ce02900004002f000482620044079800a4
:100ef000ce0290005e0290000482720044079800c7
:100f00000042eb00044f78003e0290001402be0045
:100f10000400be003e0007003e029000044a90001c
:100f2000844078004e009000dcfd07000002be0007
:100f300014079800250798001e039000ae03900048
:100f40000400200015112100840f5300858f5b00e1
:100f500002003a0014c0b300044f78003e02900033
:100f60001402be000400be00180007003e029000fc
:100f7000b4029000240290000400be002400070088
:100f80000000000000000000000000000000000061
:100f90003e029000b4029000240290000400be00c3
:100fa0000a0007001e427800e04f520003003200a2
:100fb000844280000402e800844288001e427800d7
:100fc000044078000080fa00000006000160010083
:100fd000c422b70000000600ca22b70000000600c5
:100fe000d022b70000000600d622b700000006009d
:100ff0000000000000000600e222b700000006002a
:10100000e822b70000000600000000000000060013
:101010000080ea0001600100c422b6000000060062
:10102000ca22b60000000600d022b600000006006a
:10103000d622b600000006000000000000000600f6
:10104000e222b60000000600e822b600000006001a
:10105000000000000000060001600100c022b7008f
:1010600000000600c622b70000000600cc22b70030
:1010700000000600d222b7000000060000000000b9
:1010800000000600de22b70000000600e422b700e0
:101090000000060000000000000006000080ea00da
:1010a00001600100c022b60000000600c622b600a2
:1010b00000000600cc22b60000000600d222b600d6
:1010c000000006000000000000000600de22b6005e
:1010d00000000600e422b600000006000000000048
:0410e0000000060006
:020000040000fa
:1010e4004c08000002000000000000004808000056
:1010f40004000000020000000000000000000000e6
:101104000008000048000000000000004e08000035
:10111400020000000200000000000000500800006f
:1011240002000000020000000000000000000000b7
:020000040000fa
:10113400f03fb1000180b10006003500ee03090064
:1011440000000000403fb1000180b100fbff3d0002
:101154001000b000203fb0000200350000800900fc
:0811640000000000000006007d
:020000040000fa
:0200000401f009
:04000000ecbb000055
:020000040000fa
:0200000401f009
:04000400cfff00002a
:020000040000fa
:0200000401f009
:040008004cff0000a9
:020000040000fa
:0200000401f009
:04000c00ffff0000f2
:020000040000fa
:0200000401f009
:04001000ffff0000ee
:020000040000fa
:0200000401f009
:04001400ffff0000ea
:020000040000fa
:0200000401f009
:04001800ffff0000e6
:00000001FF
