:020000040000fa
:080000000001040000000000f3
:020000040000fa
:100008009401000094010000940100009401000094
:100018009401000094010000940100009401000084
:1000280094010000940100009401000016050000ee
:1000380054050000940100004806000094010000e7
:100048009401000094010000940100000c070000d6
:100058009401000094010000940100009401000044
:100068009401000094010000940100009401000034
:100078009401000094010000940100009401000024
:100088009401000094010000940100009401000014
:10009800ce050000940100009401000094010000c6
:1000a80094010000940100009401000094010000f4
:1000b8009401000094010000280a00009401000047
:1000c80094010000940100009401000094010000d4
:1000d80094010000940100009401000094010000c4
:1000e80094010000940100009401000094010000b4
:0800f8009401000094010000d6
:020000040000fa
:100108009401000094010000940100009401000093
:100118009401000094010000940100009401000083
:1001280094010000940100009401000016050000ed
:1001380054050000940100004806000094010000e6
:100148009401000094010000940100000c070000d5
:100158009401000094010000940100009401000043
:100168009401000094010000940100009401000033
:100178009401000094010000940100009401000023
:100188009401000094010000940100009401000013
:10019800ce050000940100009401000094010000c5
:1001a80094010000940100009401000094010000f3
:1001b8009401000094010000280a00009401000046
:1001c80094010000940100009401000094010000d3
:1001d80094010000940100009401000094010000c3
:1001e80094010000940100009401000094010000b3
:0801f8009401000094010000d5
:020000040000fa
:100200000f9720000e7f22000e01880000000000e2
:1002100000012000200288000c000700400221009d
:100220000100200011000700000020000000e00095
:100230000200320000000200000000002a03020059
:10024000000000000040da000000fe004440a90069
:10025000000020000000e000030032000000200049
:10026000a00188004440a800000006009101880019
:10027000800078000000eb0015003700e2804000ad
:1002800032a0b4009101ba00e280400032a0b40074
:100290009102ba00e280400032a0b4000002eb00fc
:1002a000472bde00f507b200602ce10004003a00a5
:1002b0000059eb008301e900fdff3e000400370018
:1002c0006128e100010032000082eb000400070019
:1002d0001101ba000200e000e8ff3a000000060049
:1002e0003159ba008301e9000c0032002159ba00eb
:1002f0008301e900080032000400e00003003a0036
:10030000e280400032a0b400f5ff370011d9ba00f6
:100310008301e900faff3a008100e800e180400033
:1003200032a0b400000006000040da000000fe0029
:1003300090228800a122880000000600e14f5000b2
:1003400006003200e24f500006003200e04f50003d
:1003500009003a007021800003003700f02080007f
:100360000100370070208000680060000000e90094
:100370004f00de00000006000040eb000000060019
:100380000002eb008180fb0009003700e04f5100c4
:100390000300320065432000e14f510001003200ac
:1003a0006544200065487a000402e8000000e80087
:1003b000810f5200f5ff350000000600401bde00f3
:1003c00007002000e1cf520008003200e2cf5200c7
:1003d0000a003200002188001621880022218800ae
:1003e0000003eb008483fb001200370080208800ac
:1003f00096208800a2208800f9ff3700002088009e
:100400001620880022208800f5ff37006041200078
:10041000e1cf52000400320060422000e2cf5200df
:1004200001003a006040200011707b000603e800e4
:100430008100e800870f5300f4ff35006f4262002f
:10044000e1cf52000a003200e2cf52001100320028
:10045000e0cf520018003a006f0262004322dd0034
:1004600075f82f0026218000868262001700370071
:100470006f0262004322dd0075f82f00a220800089
:100480008282620004827200a42088001e64a80098
:10049000000006006f0262004322dd0075f82f00a5
:1004a0002620800086826200048272002420880058
:1004b0000e64a800000006006f0262004322dd0007
:1004c00075f82f002221800082826200048272006f
:1004d000242188002e64a80000000600889fbe002a
:1004e000401cde00090020000003fb00cfb3de004b
:1004f000e50f5300e08f5b001e003e000660010028
:1005000005003700070037000a0037000d003700ec
:100510001000370013003700011e8800181e8800e5
:1005200016003700411e8800581e8800621e880091
:1005300013003700811e8800981e8800a21e8800c4
:100540000f003700c11e8800d81e8800e21e8800f8
:100550000b003700011f8800181f8800221f880029
:1005600007003700411f8800581f8800621f88005d
:1005700003003700011e8800181e8800221e880014
:100580004f04be0000000600401ade0005002000f7
:10059000e04f500006003200e14f500004003a00e6
:1005a000c11f8800d41f8800e21f880000000600d9
:1005b000811f8800941f8800a21f88000000060089
:1005c0008022880000000600e04f50000400320046
:1005d000e14f500002003a00f121880000000600bf
:1005e0007122880000000600e14f50000300320035
:1005f000e24f500005003a0002003700f120880069
:1006000000000600712088000000060071218800ab
:10061000000006006022b800060220000000d000a2
:100620008180d2000482d2008582d2000000a00026
:100630000202520083825a0003003100020242008b
:1006400083824a000000a1000603e900f3ff3a009c
:0406500000000600a0
:020000040000fa
:100654000000fa008d60a9008560a900c404800030
:1006640004c0a10004d0a00004e0a000c4048800d9
:100674008c60a9008460a900a404800004c0a000c8
:1006840004d0a00004e0a000a40488000082eb00d1
:10069400041688000082eb003416880014fe2b0038
:1006a4006416880004fe2f00941688000082eb0074
:1006b400f4168800d4ff20002417880034002f008b
:1006c40044158800c4ff200054158800242e2e00f1
:1006d40034158800f4cf27000415880044fe200058
:1006e4001415880064342e0024158800a1e2a800a3
:1006f4008560a9008d60a8000082eb0014088800c2
:1007040084c0a9008cc0a800b40480000480a100a7
:100714000490a10004a0a000b404880004032800ed
:100724008408880054082000540a880054082000d3
:10073400340a8800b40480000400a0000410a0005f
:100744000420a100b4048800140580000400a00063
:100754000410a0000420a100140588008480a900ce
:100764008780a9008f80a8008c80a80024f4200032
:100774001408880004032800240888008460a90061
:100784008c60a8000400240065002000344988001f
:100794004549880004022000a5002000544988002f
:1007a4006549880024c0b300044078002ee9b700ee
:1007b400f4532000844988000002eb009449880027
:1007c40004002a00a4498800046a280015002000b7
:1007d400b4498800c54988000468290085092000b7
:1007e400d4498800e5498800609220006705070025
:1007f4000400280065002000f4498800054a8800a8
:1008040004022000a5002000144a8800254a88001c
:1008140024c0b3000440780046e9b700f453200034
:10082400444a88000002eb00544a880004002a006d
:10083400644a8800046a280015002000744a88006d
:10084400854a88000468290085092000944a8800a4
:10085400a54a8800e09320004c05070080c4b3003b
:1008640088010700a20207000060fe0024498000fe
:10087400e00f52000a0032000002eb002449880015
:10088400451780000400240004826200e00f520037
:1008940002003a00e9c2a80001003700e9c2a90039
:1008a4004416800045168000040022000482620081
:1008b400e00f520002003a00d042a90001003700c4
:1008c400d042a8004516800004002400048262007f
:1008d400e00f520002003a00d062a9000100370084
:1008e400d062a8004516800004002800048262003b
:1008f400e00f520002003a00d082a9000100370044
:10090400d082a80015168000040021000482620031
:10091400e00f520002003a00e822a900010037006b
:10092400e822a80015168000040024000482620056
:10093400e00f520002003a00d1c2a80001003700c3
:10094400d1c2a9004416800045168000040022008c
:1009540004826200e00f520002003a00d622a8008e
:1009640001003700d622a9004516800004002400a7
:1009740004826200e00f520002003a00d642a8004e
:1009840001003700d642a900451680000400280063
:1009940004826200e00f520002003a00d662a8000e
:1009a40001003700d662a90015168000040021005a
:1009b40004826200e00f520009003a00151680001c
:1009c4000400240004826200e00f520004003a0094
:1009d400e982a900140020001449880003003700ac
:1009e400e982a8000002eb00144988003417800053
:1009f40061026200e00f520002003200e9a2a90085
:100a040001003700e9a2a800041780006802620010
:100a1400e00f520002003200e9e2a90091ff370022
:100a2400e9e2a8008fff37003600f800809fbe007f
:100a3400829fbe00849fbe00869fbe000000fa0015
:100a44008460a90014498000e00f520005003200c0
:100a5400d682a90040062000010020009c05070062
:100a6400d682a800144b800070024200144b880008
:100a7400154b8000f4ff200004826200144b8800b0
:100a840014002000244988000080fa004f03be00af
:100a94004f02be004f01be004f00be003600f900f9
:100aa40000400600809fbe00829fbe00849fbe005f
:100ab400869fbe000200fa008480a900240a8000f8
:100ac400040f7800f44a80000500200014488800d0
:100ad40025488800640880006123b8001448800019
:100ae4002548800004b8b9000000780006a9b900c0
:100af40082007800010040000603780004027800b8
:100b04000432b800050040008002780014488800d0
:100b1400254888001e0278006123b800144880002c
:100b2400254880000602420087824a001448880053
:100b340025488800544880006123b8001448800088
:100b440025488000840f5300858f5b000800310026
:100b54001648800027488000544880000500200083
:100b64000402530085825b001448880025488800ed
:100b74001e027800544888000002eb00f44a880002
:100b84000080fa004f03be004f02be004f01be00ba
:100b94004f00be0000400600809fbe00829fbe0042
:100ba400849fbe00869fbe000200fa008780a900d1
:100bb400440a8000040f7800044b800005002000e4
:100bc4003448880045488800640880006123b800e0
:100bd400344880004548800004b8b900000078001b
:100be40006a9b900820078000100400006037800dd
:100bf400040278000432b800050040008002780046
:100c040034488800454888001e0278006123b800f3
:100c140034488000454880000602420087824a002a
:100c24003448880045488800644880006123b8003f
:100c34003448800045488000840f5300858f5b0052
:100c4400080031003648800047488000644880002e
:100c5400050020000402530085825b0034488800ac
:100c6400454888001e027800644888000002eb00b2
:100c7400044b88000080fa004f03be004f02be0000
:100c84004f01be004f00be0000400600809fbe0022
:100c9400849fbe00869fbe000400fa0084c0a900a1
:100ca400f44a800005002000048fbe006408800020
:100cb400050020001e03900004b3b9000603780069
:100cc4009e03780005b8b900800378000703430049
:100cd4009e037800040278000722b800050343004d
:100ce40086027800048fbe00048fbe001448800082
:100cf40025488000be0f5200ae8f5a0003003e000c
:100d04001e02be001448880025488800044b800059
:100d140005002000048fbe00640880000500200048
:100d24001e03900004b3b900060378009e03780004
:100d340005b8b90080037800070343009e037800d8
:100d4400040278000722b8000503430086027800f5
:100d5400048fbe00048fbe003448800045488000e4
:100d6400be0f5200ae8f5a0003003e001e02be00aa
:100d74003448880045488800f44a80000402e800aa
:100d8400f44a8800f54a8000040f2000848f520042
:100d940002003600040f2000f44a8800044b80004f
:100da4000402e800044b8800054b8000040f200077
:100db400848f520002003600040f2000044b880088
:100dc400340a800070026200e00f52000400320016
:100dd4000002eb00340a880054082000340a88001a
:100de400540a800070026200e00f520004003200d6
:100df4000002eb00540a880054082000540a8800ba
:100e04000080fa004f03be004f02be004f00be0038
:100e140000400600841f78000000fa00a042a900e8
:100e24008560a900041480007448880014148000ac
:100e34008448880024148000944888003414800076
:100e4400a448880044148000b448880054148000e6
:100e5400c448880064148000d44888007414800056
:100e6400e448880084148000f448880094148000c6
:100e740004498800a042a8000080fa004f027800cc
:100e8400004006000400fa00204798002e4090001d
:100e940000e8b70090c0a9000002eb00b42288006b
:100ea40088c0a9005804a8005824a800340580006c
:100eb4000480a0000490a00004a0a10034058800d0
:100ec4000042eb000440780068e9b7000042eb0000
:100ed4000440780069e9b7000042eb000440780060
:100ee4006ae9b7000042eb00044078006be9b70000
:100ef40000c02000b1fd0700000000008422800033
:100f04004522de00674262000482fb00e30f5200c8
:100f1400faff3400113920000000eb0003fd070044
:100f24000042eb00044f7800380037001e4278007e
:100f3400e14f5200030032001e427800e54f520098
:100f440019003a0004802000144278008482fb00d7
:100f54000458200084824200047c20000482620041
:100f6400c222dd0004802000144278000483fb00c8
:100f740004582000040243004223dd00f40f200043
:100f8400040263000482720084027800c4ff21001a
:100f9400048262006011b800840078001e4078006a
:100fa4004dfd07001800370004802000144278002b
:100fb4008482fb000460200084824200047c2000c0
:100fc40004826200c222dd00048020001442780002
:100fd4000483fb0004602000040243004223dd007c
:100fe400f40f20000402630004827200840278007b
:100ff400c4ff2100048262006011b80084007800fc
:101004001e40780034fd07001e4fe8001e427800a1
:10101400e54f5200c5ff34000042eb00044f780056
:10102400050037006011b800d1ff21001e40780090
:1010340054fd07001e4fe8001e427800e14f5200a5
:10104400f8ff34000042eb00044f7800040037003e
:10105400310020001e40780062fd07001e4fe800aa
:101064001e427800e24f5200f9ff34004100200094
:101074000040eb0053fd07008000eb0010c0b300fc
:1010840050fd0700008020004cfd07000000000018
:1010940085228000040e200004826200e00f5200ca
:1010a400fbff3a0090c0a8000080fa000000060090
:1010b4000600fa0020479800210798000042eb0040
:1010c400044f780010003700a496200014427800e2
:1010d4000483fb001e4078008082fb009e4378005e
:1010e4000782fb00ae0390000482430014427800a0
:1010f4004333dd00050343001588200085024300c7
:10110400844a78001e4fe8001e427800e74f5200e0
:10111400edff3600a4962000144278000442e80053
:10112400044078006ae9b700a496200014427800cd
:101134006f426200044078006ae9b7000080fa0058
:10114400000006001800fa00300f980003000900a0
:10115400001feb008e00b1003e0a90000482e800fc
:10116400144278000482fb0005002000c023dd0047
:10117400060020003e0a90000402e80014427800b1
:101184000480fb0001002000480add00c802de00e4
:10119400850272004802dd000603420087834a008c
:1011a4003e0a900063024200144278000482fb006d
:1011b400050020000602420087824a004407980086
:1011c400550798003e0a90009442780004c4b30086
:1011d40084cf520005003a0014c0b300444f980075
:1011e40034c4b300044f78000c0037003e0a90006a
:1011f4009442780034c2b30084cf520005003a0010
:101204000042eb00444f980004c6b300044f78003a
:101214000200370004c8b300044f78003e0a90006f
:101224000402e80014427800144798003e0a900033
:101234000482e80014427800244798003e0a900093
:101244006302420014427800344798003e0a90003a
:101254006402420014427800544f98003e0a900001
:101264006502420014427800644f98003e0a9000e0
:101274006602420014427800744f98003e0a9000bf
:101284006702420014427800045798009e42780096
:1012940004c8b30084cf520008003200680247003b
:1012a400040078001d02070000427800e04f52005d
:1012b4000200320004c8b300044f78001e529000ac
:1012c400444798002e529000544798003e52900094
:1012d400644798004e529000744798008e0078003e
:1012e40080c0b30072ff07000080fa00000006000f
:1012f4000000fa009596200095427800849620001c
:101304001442780084cf520012003200158020006d
:1013140094962000144278000482fb004322dd00ee
:10132400048242000400780086ff0700949620009f
:10133400144278000442e8000440780069e9b700e8
:1013440094962000144278006f42620004407800b2
:1013540069e9b700b596200095427800a49620006c
:101364001442780084cf5200360032000040eb0073
:10137400f1fb070000427800e04f52002b003200de
:1013840015882000b4962000144278000482fb00e3
:101394004322dd008483420004802000144278004c
:1013a4008482fb000458200084824200047c2000d4
:1013b40004826200c522dd0004802000144278000b
:1013c4000483fb0004582000040243004223dd0090
:1013d400f40f200004026300048272008402780087
:1013e400c48f2f00048362008042eb0084c0b300ea
:1013f400870078006011b80006007800eefb070053
:10140400b4962000144278000442e80004407800b6
:101414006be9b700b4962000144278006f42620072
:10142400044078006be9b70006003700752180009e
:101434000407200004826200e00f52000100320021
:101444002e64a9000080fa00000006003600f800af
:10145400809fbe00829fbe00849fbe00869fbe0008
:101464000000fa0088c0a900b42280006102620072
:10147400e00f5200260032005604a9001580200017
:1014840084962000144278000482fb004322dd008d
:10149400048242000041eb0081c0b30004007800e4
:1014a400b6fb07004ee4a90084962000144278009d
:1014b4000442e8000440780068e9b70084962000fc
:1014c400144278006f4262000440780068e9b70073
:1014d4008596200095427800949620001442780066
:1014e40084cf52000a003a009496200014427800f7
:1014f4000442e8000440780069e9b70094962000ab
:10150400144278006f4262000440780069e9b70031
:101514000080fa004f03be004f02be004f01be0020
:101524004f00be003600f900004006001400fa0027
:1015340040479800310798004207980053079800e5
:101544006407980075079800060f9800170f980015
:101554003e029000f401b300340798000e0b900093
:101564009e0b9000463add00ca32de00850272000e
:101574004632dd006e019000fe0190000400be00c2
:1015840023fc07000002be00048fbe0004202000dc
:10159400050020001e03be00840f5300858f5b00ee
:1015a40003003e0014002000644b88003200370022
:1015b40034802000050020001e03be00840f530069
:1015c400858f5b000d003e0044002000644b8800c2
:1015d4001e02be004e2bdd004222de000402730018
:1015e400c22ade00048fbe00be029000e4ff2f007a
:1015f40004826200340798001f003700f4002200c0
:10160400050020001e03be00840f5300858f5b007d
:101614000d003e0004012000644b88001e02be0041
:101624004c2bdd004422de0004027300c42ade00d9
:10163400048fbe00be029000d4ff2f00048262001b
:10164400340798000c00370004042000644b880021
:101654001e02be004a2bdd004622de000402730097
:10166400c62ade00048fbe00be029000c4ff2f0015
:101674000482620034079800041c20000500200046
:101684001e03be00840f5300858f5b0008003600e4
:10169400644b80004322dd00644b8800be0290004e
:1016a40034fe2f000482620034079800570037008c
:1016b40004182000050020001e03be00840f530000
:1016c400858f5b0009003600644b80006722b900f7
:1016d40004027800644b8800be02900074fe2f0060
:1016e4000482620034079800480037000414200084
:1016f400050020001e03be00840f5300858f5b008d
:1017040009003600644b80006622b90004027800a8
:10171400644b8800be029000b4fe2f000482620075
:101724003407980039003700041020000500200019
:101734001e03be00840f5300858f5b000900360032
:10174400644b80006522b90004027800644b880071
:10175400be029000f4fe2f00048262003407980059
:101764002a003700040c2000050020001e03be00e0
:10177400840f5300858f5b0008003600644b8000a3
:101784004222dd00644b8800be02900034ff2f002b
:1017940004826200340798001c003700040820000b
:1017a400050020001e03be00840f5300858f5b00dc
:1017b40009003600644b80006322b90004027800fb
:1017c400644b8800be02900074ff2f000482620004
:1017d400340798000d0037000404200005002000a1
:1017e4001e03be00840f5300858f5b000700360084
:1017f400644b800004024200644b8800be029000e7
:10180400b4ff2f000482620034079800644b800008
:101814004222dd00644b88004e429000e14f5200aa
:1018240004003a003e029000141188005e03900008
:10183400061188004e429000e24f520004003a0024
:101844003e029000441188005e0390003611880027
:101854000080fa00000006000c00fa00400798001f
:10186400214f98000042eb00044f78002e4a90006c
:10187400e14f520054003a008500a9004e02900046
:10188400241188000002eb00340798001800370088
:101894003e0290000402e80034079800644b800084
:1018a400be029000848f52000300360034c0b3009f
:1018b400044f78000e003700051180000404200056
:1018c40004826200e00f52000300320044c0b300ff
:1018d400044f7800060037000411800062026200a1
:1018e400e00f520002003a0014c0b300044f780025
:1018f4001e427800e04f5200e5ff3200200037001e
:101904003e0290000402e80034079800644b800013
:10191400be029000848f52000300360034c0b3002e
:10192400044f7800160037000511800004042000dd
:1019340004826200e00f52000300320044c0b3008e
:10194400044f78000e0037002504800004102000a6
:1019540004826200e00f52000300320024c0b3008e
:10196400044f780006003700041180006102620011
:10197400e00f52000200320024c0b300044f78008c
:101984001e427800e14f5200ddff32001e42780013
:10199400e24f520005003a002411800005002000a7
:1019a400140798002507980007003700040020005a
:1019b400151121001407980025079800244b800076
:1019c4000402e800244b88002e4a9000e24f5200a3
:1019d4004d003a008740a9004e029000541188003f
:1019e4000002eb0034079800180037003e02900014
:1019f4000402e80034079800644b8000be029000a3
:101a0400848f52000300360034c0b300044f7800c2
:101a14000e003700351180000404200004826200a7
:101a2400e00f52000300320044c0b300044f7800ba
:101a3400060037003411800062026200e00f520099
:101a440002003a0014c0b300044f78001e4278002c
:101a5400e04f5200e5ff3200190037003e029000cb
:101a64000402e80034079800644b8000be02900032
:101a7400848f52000300360034c0b300044f780052
:101a84000f00370035118000040420000482620036
:101a9400e00f52000300320044c0b300044f78004a
:101aa40007003700350480000440200004826200ef
:101ab400e00f52000200320024c0b300044f78004b
:101ac4001e427800e14f5200e4ff32001e427800cb
:101ad400e24f520005003a00541180000500200036
:101ae4001407980025079800070037000400200019
:101af400151121001407980025079800344b800025
:101b04000402e800344b88001e029000ae029000ec
:101b14000400be000080fa00000006000200fa0083
:101b2400000f78001e0278001402be0006a02a00ee
:101b3400a7012000860f5200878f5a000b00320045
:101b440006c02c00c7012000860f5200878f5a0060
:101b54002c0032000610200007012000860f5200de
:101b6400878f5a0051003200760037001e02780039
:101b740044429000e04f520011003200649520006e
:101b8400144278009e027800944a980074952000cc
:101b9400144278009e027800a44a9800849520009c
:101ba400144278009e027800b44a9800949520006c
:101bb400144278009e027800c44a98006f003700ef
:101bc4001e027800544290000440780056e9b700a1
:101bd4001e027800644290000440780057e9b70080
:101be4001e027800744290000440780058e9b7005f
:101bf4001e027800044a90000440780059e9b700b6
:101c04005e0037001e02780044429000e04f52000c
:101c14001e0032008416800062026200e00f52004f
:101c24000d003a009e02780000c2eb00944a98002e
:101c34009e02780000c2eb00a44a98009e0278003d
:101c440000c2eb00b44a98009e02780000c2eb0088
:101c5400c44a9800490037009e0278000042eb0015
:101c6400944a98009e0278000042eb00a44a98002f
:101c74009e0278000042eb00b44a98009e0278006d
:101c84000042eb00c44a98003c0037001e02780072
:101c940054429000e14f420002003a00d022a900d1
:101ca40036003700d022a800340037001e02780026
:101cb40044429000e04f520011003200a4952000ed
:101cc400144278009e027800944a9800b49520004b
:101cd400144278009e027800a44a9800c49520001b
:101ce400144278009e027800b44a9800d4952000eb
:101cf400144278009e027800c44a98001f003700fe
:101d04001e02780054429000044078005ae9b7005b
:101d14001e02780064429000044078005be9b7003a
:101d24001e02780074429000044078005ce9b70019
:101d34001e027800044a9000044078005de9b70070
:101d44000e0037009e02780064c0b300944a9800e5
:101d54009e02780014c0b300a44a98009e02780042
:101d64000042eb00b44a98009e0278000042eb0067
:101d7400c44a980000c2eb00010037000042eb00a7
:101d8400044078000080fa00000006000200fa0017
:101d9400000f78001e027800b40290002402900024
:101da4000400be00610007001e0278001402be0099
:101db4000400be005d0007001e027800b40290001b
:101dc400240290000400be008c0007001e0278006c
:101dd4001402be000400be00880007001e02780042
:101de400240b9000b40b90001e027800940a90001b
:101df400040a90001e007800f00190001e00780094
:101e0400600190001e007800d00090001e00780051
:101e140000489000c5fd07000080fa00000006009d
:101e24000c00fa0030079800410798005207980008
:101e3400de029000f4ff2000048262005407980040
:101e4400ce02900004002f00048262004407980030
:101e5400ce0290005e029000048272004407980053
:101e64000042eb00044f78003e0290001402be00d2
:101e74000400be003e0007003e029000044a9000a9
:101e8400844078004e00900073fe07000002be00fc
:101e940014079800250798001e039000ae039000d5
:101ea4000400200015112100840f5300858f5b006e
:101eb40002003a0014c0b300044f78003e029000c0
:101ec4001402be000400be00180007003e02900089
:101ed400b4029000240290000400be002400070015
:101ee40000000000000000000000000000000000ee
:101ef4003e029000b4029000240290000400be0050
:101f04000a0007001e427800e04f5200030032002e
:101f1400744b80000402e800744b88001e42780071
:101f2400044078000080fa0000000600016001000f
:101f3400c422b70000000600ca22b7000000060051
:101f4400d022b70000000600d622b7000000060029
:101f54000000000000000600e222b70000000600b6
:101f6400e822b700000006000000000000000600a0
:101f74000080ea0001600100c422b60000000600ef
:101f8400ca22b60000000600d022b60000000600f7
:101f9400d622b60000000600000000000000060083
:101fa400e222b60000000600e822b60000000600a7
:101fb400000000000000060001600100c022b7001c
:101fc40000000600c622b70000000600cc22b700bd
:101fd40000000600d222b700000006000000000046
:101fe40000000600de22b70000000600e422b7006d
:101ff4000000060000000000000006000080ea0067
:1020040001600100c022b60000000600c622b6002e
:1020140000000600cc22b60000000600d222b60062
:10202400000006000000000000000600de22b600ea
:1020340000000600e422b6000000060000000000d4
:042044000000060092
:020000040000fa
:102048006c090000020000000000000064090000a4
:102058000400000002000000000000000000000072
:102068000209000054000000000000005e090000a2
:102078000600000002000000000000000000000050
:102088006e090000020000000200000000000000cd
:1020980000080000020100000000000068090000bc
:1020a8000400000002000000000000000000000022
:1020b80056090000080000000200000000000000af
:0c20c8000000000000000000000000000c
:020000040000fa
:1020d400f03fb1000180b10006003500ee030900b5
:1020e40000000000403fb1000180b100fbff3d0053
:1020f4001000b000203fb00002003500008009004d
:082104000000000000000600cd
:020000040000fa
:0200000401f009
:04000000ecbb000055
:020000040000fa
:0200000401f009
:04000400cfff00002a
:020000040000fa
:0200000401f009
:040008004cff0000a9
:020000040000fa
:0200000401f009
:04000c00ffff0000f2
:020000040000fa
:0200000401f009
:04001000ffff0000ee
:020000040000fa
:0200000401f009
:04001400ffff0000ea
:020000040000fa
:0200000401f009
:04001800ffff0000e6
:00000001FF
