:020000040000fa
:080000000001040000000000f3
:020000040000fa
:100008009401000094010000940100009401000094
:100018009401000094010000940100009401000084
:1000280094010000940100009401000016040000ef
:1000380054040000940100004805000094010000e9
:100048009401000094010000940100000c060000d7
:100058009401000094010000940100009401000044
:100068009401000094010000940100009401000034
:100078009401000094010000940100009401000024
:100088009401000094010000940100009401000014
:10009800ce040000940100009401000094010000c7
:1000a80094010000940100009401000094010000f4
:1000b80094010000940100009401000094010000e4
:1000c80094010000940100009401000094010000d4
:1000d80094010000940100009401000094010000c4
:1000e80094010000940100009401000094010000b4
:0800f8009401000094010000d6
:020000040000fa
:100108009401000094010000940100009401000093
:100118009401000094010000940100009401000083
:1001280094010000940100009401000016040000ee
:1001380054040000940100004805000094010000e8
:100148009401000094010000940100000c060000d6
:100158009401000094010000940100009401000043
:100168009401000094010000940100009401000033
:100178009401000094010000940100009401000023
:100188009401000094010000940100009401000013
:10019800ce040000940100009401000094010000c6
:1001a80094010000940100009401000094010000f3
:1001b80094010000940100009401000094010000e3
:1001c80094010000940100009401000094010000d3
:1001d80094010000940100009401000094010000c3
:1001e80094010000940100009401000094010000b3
:0801f8009401000094010000d5
:020000040000fa
:100200002f8620000e7f22000e01880000000000d3
:1002100000012000200288000c00070080a92000b7
:100220000100200011000700000020000000e00095
:10023000020032000000020000000000b8010200cd
:10024000000000000040da000000fe004440a90069
:10025000000020000000e000030032000000200049
:10026000a00188004440a800000006009101880019
:10027000800078000000eb0015003700e2804000ad
:1002800032a0b4009101ba00e280400032a0b40074
:100290009102ba00e280400032a0b4000002eb00fc
:1002a000472bde00f507b200602ce10004003a00a5
:1002b0000059eb008301e900fdff3e000400370018
:1002c0006128e100010032000082eb000400070019
:1002d0001101ba000200e000e8ff3a000000060049
:1002e0003159ba008301e9000c0032002159ba00eb
:1002f0008301e900080032000400e00003003a0036
:10030000e280400032a0b400f5ff370011d9ba00f6
:100310008301e900faff3a008100e800e180400033
:1003200032a0b400000006000040da000000fe0029
:100330006022b800060220000000d0008180d200b8
:100340000482d2008582d2000000a0000202520086
:1003500083825a00030031000202420083824a0075
:100360000000a1000603e900f3ff3a0000000600c8
:020000040000fa
:100370000600fa008d60a9008560a900c404800011
:1003800004c0a10004d0a00004e0a000c4048800c0
:100390008c60a9008460a900a404800004c0a000af
:1003a00004d0a00004e0a000a40488000082eb00b8
:1003b000041688000082eb003416880014fe2b001f
:1003c0006416880004fe2f00941688000082eb005b
:1003d000f4168800d4ff20002417880034002f0072
:1003e00044158800c4ff200054158800242e2e00d8
:1003f00034158800f4cf27000415880044fe20003f
:100400001415880064342e0024158800a1e2a80089
:100410008560a9008d60a8000082eb0014088800a8
:1004200084c0a9008cc0a800b40480000480a1008e
:100430000490a10004a0a000b404880004032800d4
:100440008408880054082000540a880054082000ba
:10045000340a8800b40480000400a0000410a00046
:100460000420a100b4048800140580000400a0004a
:100470000410a0000420a100140588008480a900b5
:100480008780a9008f80a8008c80a80024f4200019
:100490001408880004032800240888008460a90048
:1004a0008c60a8000400240065002000244188001e
:1004b0003541880004022000a50020004441880046
:1004c0005541880024c0b300044078002ce8b700f0
:1004d000f4532000744188000002eb00844188003e
:1004e00004002a0094418800046a280015002000b6
:1004f000a4418800b54188000468290085092000ce
:10050000c4418800d5418800408220005a0307007a
:100510000400280065002000e4418800f5418800bf
:1005200004022000a5002000044288001542880033
:1005300024c0b3000440780044e8b700f45320001e
:10054000344288000002eb004442880004002a0084
:1005500054428800046a2800150020006442880084
:1005600075428800046829008509200084428800bb
:1005700095428800c08320003f0307000060fe0012
:1005800014418000e00f52000a0032000002eb002c
:100590001441880045178000040024000482620092
:1005a000e00f520002003a00e9c2a8000100370043
:1005b000e9c2a900451680000400210004826200ff
:1005c000e00f520002003a00d022a90001003700db
:1005d000d022a80045168000040022000482620098
:1005e000e00f520002003a00d042a900010037009b
:1005f000d042a80045168000040024000482620056
:10060000e00f520002003a00d062a900010037005a
:10061000d062a80045168000040028000482620011
:10062000e00f520002003a00d082a900010037001a
:10063000d082a80015168000040021000482620008
:10064000e00f520002003a00e822a9000100370042
:10065000e822a8001516800004002400048262002d
:10066000e00f520002003a00d1c2a800010037009a
:10067000d1c2a90045168000040021000482620056
:10068000e00f520002003a00d602a8000100370035
:10069000d602a900451680000400220004826200f0
:1006a000e00f520002003a00d622a80001003700f5
:1006b000d622a900451680000400240004826200ae
:1006c000e00f520002003a00d642a80001003700b5
:1006d000d642a9004516800004002800048262006a
:1006e000e00f520002003a00d662a8000100370075
:1006f000d662a90015168000040021000482620061
:10070000e00f520009003a00151680000400240092
:1007100004826200e00f520004003a00e982a9005e
:10072000140020000441880003003700e982a8007b
:100730000002eb000441880034178000610262006f
:10074000e00f520002003200e9a2a90001003700c8
:10075000e9a2a8000417800068026200e00f5200be
:1007600002003200e9e2a90001003700e9e2a80036
:10077000c440800004017800010021004082200074
:10078000e2020700c4a2200005002000048fbe0082
:100790001e03be004c3add00c432de00850272004a
:1007a0004c32dd00048fbe002440800035408000c4
:1007b0000401be001e00be00ddfe07000002be00f8
:1007c000048fbe00e4ff2000050020001e03be00d1
:1007d000840f5300858f5b0003003600f4ff200078
:1007e00005002000048fbe001e0278002407980038
:1007f0002e0190000100290040822000c302070062
:10080000644080000401780001002100c0832000c2
:10081000be020700c44280000401780001002900e4
:10082000c0832000b902070054ff37003600f800eb
:10083000809fbe00829fbe00849fbe00869fbe0038
:100840000000fa008460a90004418000e00f52001b
:1008500005003200d682a9004006200001002000d9
:1008600048030700d682a800c442800070024200fc
:10087000c4428800c5428000f4ff20000482620068
:10088000c442880014002000144188000080fa004f
:100890004f03be004f02be004f01be004f00be001e
:1008a0003600f90000400600809fbe00829fbe0017
:1008b000849fbe00869fbe000200fa008480a900cb
:1008c000240a8000040f7800a44280000500200064
:1008d0000440880015408800640880006123b80047
:1008e000044080001540800004b8b9000000780082
:1008f00006a9b900820078000100400006037800d4
:10090000040278000432b80005004000800278003c
:1009100004408800154088001e0278006123b8005a
:1009200004408000154080000602420087824a0091
:100930000440880015408800444080006123b800ce
:100940000440800015408000840f5300858f5b00b9
:1009500008003100064080001740800044408000bd
:10096000050020000402530085825b0004408800db
:10097000154088001e027800444088000002eb0009
:10098000a44288000080fa004f03be004f02be0060
:100990004f01be004f00be0000400600809fbe0019
:1009a000829fbe00849fbe00869fbe000200fa00a8
:1009b0008780a900440a8000040f7800b4428000b8
:1009c000050020002440880035408800640880002d
:1009d0006123b800244080003540800004b8b9008d
:1009e0000000780006a9b9008200780001004000ec
:1009f00006037800040278000432b80005004000c5
:100a00008002780024408800354088001e0278006b
:100a10006123b80024408000354080000602420077
:100a200087824a0024408800354088005440800076
:100a30006123b8002440800035408000840f5300bb
:100a4000858f5b0008003100264080003740800021
:100a500054408000050020000402530085825b00a2
:100a600024408800354088001e02780054408800e9
:100a70000002eb00b44288000080fa004f03be0081
:100a80004f02be004f01be004f00be0000400600f6
:100a9000809fbe00849fbe00869fbe000400fa00b7
:100aa00084c0a900a442800005002000048fbe007d
:100ab00064088000050020001e03900004b3b90004
:100ac000060378009e03780005b8b900800378001b
:100ad000070343009e037800040278000722b80051
:100ae0000503430086027800048fbe00048fbe0019
:100af0000440800015408000be0f5200ae8f5a00a7
:100b000003003e001e02be0004408800154088001d
:100b1000b442800005002000048fbe0064088000fd
:100b2000050020001e03900004b3b90006037800fe
:100b30009e03780005b8b9008003780007034300de
:100b40009e037800040278000722b80005034300e2
:100b500086027800048fbe00048fbe00244080000f
:100b600035408000be0f5200ae8f5a0003003e0099
:100b70001e02be002440880035408800a442800048
:100b80000402e800a4428800a5428000040f20006f
:100b9000848f520002003600040f2000a442880017
:100ba000b44280000402e800b4428800b5428000ec
:100bb000040f2000848f520002003600040f200032
:100bc000b4428800340a800070026200e00f5200d4
:100bd000040032000002eb00340a880054082000b0
:100be000340a8800540a800070026200e00f52004c
:100bf000040032000002eb00540a88005408200070
:100c0000540a88000080fa004f03be004f02be0065
:100c10004f00be0000400600841f78000000fa006c
:100c2000a042a9008560a9000414800064408800e7
:100c300014148000744088002414800084408800cc
:100c4000341480009440880044148000a44088003c
:100c500054148000b440880064148000c4408800ac
:100c600074148000d440880084148000e44088001c
:100c700094148000f4408800a042a8000080fa008c
:100c80004f027800004006001400fa004047980028
:100c900031079800420798005307980064079800ae
:100ca00075079800060f9800170f98003e029000f5
:100cb000f401b300340798000e0b90009e0b9000d7
:100cc000463add00ca32de00850272004632dd009f
:100cd0006e019000fe0190000400be0094fd07002c
:100ce0000002be00048fbe0004202000050020008a
:100cf0001e03be00840f5300858f5b0003003e007f
:100d000014002000f44288003200370034802000b4
:100d1000050020001e03be00840f5300858f5b007a
:100d20000d003e0044002000f44288001e02be0078
:100d30004e2bdd004222de0004027300c22ade00d8
:100d4000048fbe00be029000e4ff2f000482620008
:100d5000340798001f003700f4002200050020002f
:100d60001e03be00840f5300858f5b000d003e0004
:100d700004012000f44288001e02be004c2bdd005e
:100d80004422de0004027300c42ade00048fbe0089
:100d9000be029000d4ff2f00048262003407980046
:100da0000c00370004042000f44288001e02be003c
:100db0004a2bdd004622de0004027300c62ade0054
:100dc000048fbe00be029000c4ff2f0004826200a8
:100dd00034079800041c2000050020001e03be00fc
:100de000840f5300858f5b0008003600f4428000ba
:100df0004322dd00f4428800be02900034fe2f0042
:100e0000048262003407980057003700041820005d
:100e1000050020001e03be00840f5300858f5b0079
:100e200009003600f44280006722b900040278000d
:100e3000f4428800be02900074fe2f00048262001b
:100e400034079800480037000414200005002000f3
:100e50001e03be00840f5300858f5b00090036001f
:100e6000f44280006622b90004027800f44288004f
:100e7000be029000b4fe2f00048262003407980086
:100e80003900370004102000050020001e03be00ba
:100e9000840f5300858f5b0009003600f442800008
:100ea0006522b90004027800f4428800be02900076
:100eb000f4fe2f0004826200340798002a003700f5
:100ec000040c2000050020001e03be00840f530008
:100ed000858f5b0008003600f44280004222dd006e
:100ee000f4428800be02900034ff2f0004826200aa
:100ef000340798001c00370004082000050020007b
:100f00001e03be00840f5300858f5b00090036006e
:100f1000f44280006322b90004027800f4428800a1
:100f2000be02900074ff2f00048262003407980014
:100f30000d00370004042000050020001e03be0041
:100f4000840f5300858f5b0007003600f442800059
:100f500004024200f4428800be029000b4ff2f0059
:100f60000482620034079800f44280004222dd00cf
:100f7000f44288004e429000e14f520004003a00d3
:100f80003e029000141188005e0390000611880054
:100f90004e429000e24f520004003a003e029000a0
:100fa000441188005e039000361188000080fa002a
:100fb000000006000c00fa0040079800214f98003e
:100fc0000042eb00044f78002e4a9000e14f52009f
:100fd00054003a008500a9004e02900024118800b8
:100fe0000002eb0034079800180037003e02900022
:100ff0000402e80034079800f4428000be0290002a
:10100000848f52000300360034c0b300044f7800d0
:101010000e003700051180000404200004826200e5
:10102000e00f52000300320044c0b300044f7800c8
:10103000060037000411800062026200e00f5200d7
:1010400002003a0014c0b300044f78001e4278003a
:10105000e04f5200e5ff3200200037003e029000d2
:101060000402e80034079800f4428000be029000b9
:10107000848f52000300360034c0b300044f780060
:10108000160037000511800004042000048262006d
:10109000e00f52000300320044c0b300044f780058
:1010a0000e00370025048000041020000482620036
:1010b000e00f52000300320024c0b300044f780058
:1010c000060037000411800061026200e00f520048
:1010d0000200320024c0b300044f78001e427800a2
:1010e000e14f5200ddff32001e427800e24f520015
:1010f00005003a0024118000050020001407980024
:101100002507980007003700040020001511210072
:101110001407980025079800d44280000402e800d4
:10112000d44288002e4a9000e24f52004d003a000f
:101130008740a9004e029000541188000002eb0085
:1011400034079800180037003e0290000402e800bf
:1011500034079800f4428000be029000848f520051
:101160000300360034c0b300044f78000e0037008f
:10117000351180000404200004826200e00f520058
:101180000300320044c0b300044f7800060037006b
:101190003411800062026200e00f520002003a0047
:1011a00014c0b300044f78001e427800e04f520094
:1011b000e5ff3200190037003e0290000402e8000b
:1011c00034079800f4428000be029000848f5200e1
:1011d0000300360034c0b300044f78000f0037001e
:1011e000351180000404200004826200e00f5200e8
:1011f0000300320044c0b300044f780007003700fa
:10120000350480000440200004826200e00f520098
:101210000200320024c0b300044f78001e42780060
:10122000e14f5200e4ff32001e427800e24f5200cc
:1012300005003a00541180000500200014079800b2
:101240002507980007003700040020001511210031
:101250001407980025079800e44280000402e80083
:10126000e44288001e029000ae0290000400be001e
:101270000080fa00000006000200fa00000f78006b
:101280001e027800b4029000240290000400be0008
:10129000610007001e0278001402be000400be00b8
:1012a0005d0007001e027800b40290002402900046
:1012b0000400be008c0007001e0278001402be006d
:1012c0000400be00880007001e027800240b900076
:1012d000b40b90001e027800940a9000040a90005b
:1012e0001e007800f00190001e0078006001900060
:1012f0001e007800d00090001e007800004890008a
:1013000061fe07000080fa00000006000c00fa00f1
:10131000300798004107980052079800de029000bd
:10132000f4ff20000482620054079800ce0290006f
:1013300004002f000482620044079800ce0290004f
:101340005e02900004827200440798000042eb00a5
:10135000044f78003e0290001402be000400be005c
:101360003e0007003e029000044a9000844078004e
:101370004e0090000fff07000002be001407980007
:10138000250798001e039000ae0390000400200083
:1013900015112100840f5300858f5b0002003a0075
:1013a00014c0b300044f78003e0290001402be0047
:1013b0000400be00180007003e029000b402900036
:1013c000240290000400be0024000700000000007a
:1013d0000000000000000000000000003e0290003d
:1013e000b4029000240290000400be000a0007002e
:1013f0001e427800e04f5200030032000443800098
:101400000402e800044388001e427800044078008b
:101410000080fa000000060001600100c422b7004d
:1014200000000600ca22b70000000600d022b70064
:1014300000000600d622b7000000060000000000f1
:1014400000000600e222b70000000600e822b70014
:101450000000060000000000000006000080ea0016
:1014600001600100c422b60000000600ca22b600d6
:1014700000000600d022b60000000600d622b6000a
:10148000000006000000000000000600e222b60096
:1014900000000600e822b600000006000000000080
:1014a0000000060001600100c022b7000000060035
:1014b000c622b70000000600cc22b70000000600dc
:1014c000d222b70000000600000000000000060065
:1014d000de22b70000000600e422b700000006008c
:1014e00000000000000006000080ea00016001002a
:1014f000c022b60000000600c622b60000000600aa
:10150000cc22b60000000600d222b6000000060081
:101510000000000000000600de22b6000000060009
:10152000e422b600000006000000000000000600f3
:020000040000fa
:101530005e08000002000000000000005a080000e1
:101540000400000002000000000000000000000095
:1015500000080000540000000000000054080000d3
:101560000600000002000000000000000000000073
:1015700060080000020000000200000000000000ff
:041580000000000067
:020000040000fa
:10158400f03fb1000180b10006003500ee03090010
:1015940000000000403fb1000180b100fbff3d00ae
:1015a4001000b000203fb0000200350000800900a8
:0815b400000000000000060029
:020000040000fa
:0200000401f009
:04000000ecbb000055
:020000040000fa
:0200000401f009
:04000400cfff00002a
:020000040000fa
:0200000401f009
:040008004cff0000a9
:020000040000fa
:0200000401f009
:04000c00ffff0000f2
:020000040000fa
:0200000401f009
:04001000ffff0000ee
:020000040000fa
:0200000401f009
:04001400ffff0000ea
:020000040000fa
:0200000401f009
:04001800ffff0000e6
:00000001FF
